{
  "address": "0x76be1bABe1B744514b34AB72F2330a35d576b390",
  "abi": [
    {
      "inputs": [
        {
          "internalType": "address",
          "name": "vrfCoordinatorV2",
          "type": "address"
        },
        {
          "internalType": "uint256",
          "name": "entranceFee",
          "type": "uint256"
        },
        {
          "internalType": "bytes32",
          "name": "gasLane",
          "type": "bytes32"
        },
        {
          "internalType": "uint64",
          "name": "subscriptionId",
          "type": "uint64"
        },
        {
          "internalType": "uint32",
          "name": "callbackGasLimit",
          "type": "uint32"
        },
        {
          "internalType": "uint256",
          "name": "interval",
          "type": "uint256"
        }
      ],
      "stateMutability": "nonpayable",
      "type": "constructor"
    },
    {
      "inputs": [
        {
          "internalType": "address",
          "name": "have",
          "type": "address"
        },
        {
          "internalType": "address",
          "name": "want",
          "type": "address"
        }
      ],
      "name": "OnlyCoordinatorCanFulfill",
      "type": "error"
    },
    {
      "inputs": [],
      "name": "Raffle_NOT_OPEN",
      "type": "error"
    },
    {
      "inputs": [],
      "name": "Raffle_NotEnough_ETHEntered",
      "type": "error"
    },
    {
      "inputs": [],
      "name": "Raffle_TransferFailed",
      "type": "error"
    },
    {
      "inputs": [
        {
          "internalType": "uint256",
          "name": "currentBalance",
          "type": "uint256"
        },
        {
          "internalType": "uint256",
          "name": "numPlayers",
          "type": "uint256"
        },
        {
          "internalType": "uint256",
          "name": "raffleState",
          "type": "uint256"
        }
      ],
      "name": "Raffle_UpkeepNotNeeded",
      "type": "error"
    },
    {
      "anonymous": false,
      "inputs": [
        {
          "indexed": true,
          "internalType": "address",
          "name": "player",
          "type": "address"
        }
      ],
      "name": "RaffleEnter",
      "type": "event"
    },
    {
      "anonymous": false,
      "inputs": [
        {
          "indexed": true,
          "internalType": "uint256",
          "name": "requestId",
          "type": "uint256"
        }
      ],
      "name": "RequestRaffleWinner",
      "type": "event"
    },
    {
      "anonymous": false,
      "inputs": [
        {
          "indexed": true,
          "internalType": "address",
          "name": "winner",
          "type": "address"
        }
      ],
      "name": "WinnerPicked",
      "type": "event"
    },
    {
      "inputs": [
        {
          "internalType": "bytes",
          "name": "",
          "type": "bytes"
        }
      ],
      "name": "checkUpkeep",
      "outputs": [
        {
          "internalType": "bool",
          "name": "upkeepNeeded",
          "type": "bool"
        },
        {
          "internalType": "bytes",
          "name": "",
          "type": "bytes"
        }
      ],
      "stateMutability": "nonpayable",
      "type": "function"
    },
    {
      "inputs": [],
      "name": "enterRaffle",
      "outputs": [],
      "stateMutability": "payable",
      "type": "function"
    },
    {
      "inputs": [],
      "name": "getEntranceFee",
      "outputs": [
        {
          "internalType": "uint256",
          "name": "",
          "type": "uint256"
        }
      ],
      "stateMutability": "view",
      "type": "function"
    },
    {
      "inputs": [],
      "name": "getInterval",
      "outputs": [
        {
          "internalType": "uint256",
          "name": "",
          "type": "uint256"
        }
      ],
      "stateMutability": "view",
      "type": "function"
    },
    {
      "inputs": [],
      "name": "getLatestTimestamp",
      "outputs": [
        {
          "internalType": "uint256",
          "name": "",
          "type": "uint256"
        }
      ],
      "stateMutability": "view",
      "type": "function"
    },
    {
      "inputs": [],
      "name": "getNumWords",
      "outputs": [
        {
          "internalType": "uint256",
          "name": "",
          "type": "uint256"
        }
      ],
      "stateMutability": "pure",
      "type": "function"
    },
    {
      "inputs": [],
      "name": "getNumberOfPlayers",
      "outputs": [
        {
          "internalType": "uint256",
          "name": "",
          "type": "uint256"
        }
      ],
      "stateMutability": "view",
      "type": "function"
    },
    {
      "inputs": [
        {
          "internalType": "uint256",
          "name": "index",
          "type": "uint256"
        }
      ],
      "name": "getPlayer",
      "outputs": [
        {
          "internalType": "address",
          "name": "",
          "type": "address"
        }
      ],
      "stateMutability": "view",
      "type": "function"
    },
    {
      "inputs": [],
      "name": "getRaffleState",
      "outputs": [
        {
          "internalType": "enum Raffle.RaffleState",
          "name": "",
          "type": "uint8"
        }
      ],
      "stateMutability": "view",
      "type": "function"
    },
    {
      "inputs": [],
      "name": "getRequestConfirmartions",
      "outputs": [
        {
          "internalType": "uint256",
          "name": "",
          "type": "uint256"
        }
      ],
      "stateMutability": "pure",
      "type": "function"
    },
    {
      "inputs": [
        {
          "internalType": "bytes",
          "name": "",
          "type": "bytes"
        }
      ],
      "name": "performUpkeep",
      "outputs": [],
      "stateMutability": "nonpayable",
      "type": "function"
    },
    {
      "inputs": [
        {
          "internalType": "uint256",
          "name": "requestId",
          "type": "uint256"
        },
        {
          "internalType": "uint256[]",
          "name": "randomWords",
          "type": "uint256[]"
        }
      ],
      "name": "rawFulfillRandomWords",
      "outputs": [],
      "stateMutability": "nonpayable",
      "type": "function"
    },
    {
      "inputs": [],
      "name": "recentWinner",
      "outputs": [
        {
          "internalType": "address",
          "name": "",
          "type": "address"
        }
      ],
      "stateMutability": "view",
      "type": "function"
    }
  ],
  "transactionHash": "0x9b0549206362b1fc9e0cecfdda032066a5b685cd032d459a00c54de615145b42",
  "args": [
    "0x8103B0A8A00be2DDC778e6e7eaa21791Cd364625",
    "10000000000000000",
    "0x474e34a077df58807dbe9c96d3c009b23b3c6d0cce433e59bbf5b34f823bc56c",
    "8546",
    "500000",
    "30"
  ],
  "numDeployments": 2,
  "solcInputHash": "7caf3b061a2d0ad07fbc0d948a046a25",
  "bytecode": "0x61016060405273779877a7b0d9e8603169ddbd7836e478b4624789600360006101000a81548173ffffffffffffffffffffffffffffffffffffffff021916908373ffffffffffffffffffffffffffffffffffffffff1602179055503480156200006757600080fd5b50604051620019003803806200190083398181016040528101906200008d9190620002f5565b858073ffffffffffffffffffffffffffffffffffffffff1660808173ffffffffffffffffffffffffffffffffffffffff1660601b81525050508460a081815250508573ffffffffffffffffffffffffffffffffffffffff1660c08173ffffffffffffffffffffffffffffffffffffffff1660601b815250508360e081815250508267ffffffffffffffff166101008167ffffffffffffffff1660c01b815250508163ffffffff166101208163ffffffff1660e01b815250506000600160146101000a81548160ff021916908360018111156200016e576200016d62000391565b5b021790555042600281905550806101408181525050505050505050620003c0565b600080fd5b600073ffffffffffffffffffffffffffffffffffffffff82169050919050565b6000620001c18262000194565b9050919050565b620001d381620001b4565b8114620001df57600080fd5b50565b600081519050620001f381620001c8565b92915050565b6000819050919050565b6200020e81620001f9565b81146200021a57600080fd5b50565b6000815190506200022e8162000203565b92915050565b6000819050919050565b620002498162000234565b81146200025557600080fd5b50565b60008151905062000269816200023e565b92915050565b600067ffffffffffffffff82169050919050565b6200028e816200026f565b81146200029a57600080fd5b50565b600081519050620002ae8162000283565b92915050565b600063ffffffff82169050919050565b620002cf81620002b4565b8114620002db57600080fd5b50565b600081519050620002ef81620002c4565b92915050565b60008060008060008060c087890312156200031557620003146200018f565b5b60006200032589828a01620001e2565b96505060206200033889828a016200021d565b95505060406200034b89828a0162000258565b94505060606200035e89828a016200029d565b93505060806200037189828a01620002de565b92505060a06200038489828a016200021d565b9150509295509295509295565b7f4e487b7100000000000000000000000000000000000000000000000000000000600052602160045260246000fd5b60805160601c60a05160c05160601c60e0516101005160c01c6101205160e01c610140516114c46200043c600039600081816107ec01526108950152600061069b01526000610678015260006106570152600061061b0152600081816102fa01526103f7015260008181610337015261038b01526114c46000f3fe6080604052600436106100c25760003560e01c806353a2c19a1161007f57806391ad27b41161005957806391ad27b414610238578063e55ae4e814610263578063f43b52cb146102a0578063fd6673f5146102cb576100c2565b806353a2c19a146101a457806367fcf352146101cf5780636e04ff0d146101fa576100c2565b806309bc33a7146100c7578063115cbaf5146100f25780631fe543e31461011d5780632cfcc539146101465780634585e33b146101505780634f8c70cf14610179575b600080fd5b3480156100d357600080fd5b506100dc6102f6565b6040516100e99190610c45565b60405180910390f35b3480156100fe57600080fd5b5061010761031e565b6040516101149190610cd7565b60405180910390f35b34801561012957600080fd5b50610144600480360381019061013f9190610e8b565b610335565b005b61014e6103f5565b005b34801561015c57600080fd5b5061017760048036038101906101729190610f42565b610564565b005b34801561018557600080fd5b5061018e610763565b60405161019b9190610fd0565b60405180910390f35b3480156101b057600080fd5b506101b961078d565b6040516101c69190610c45565b60405180910390f35b3480156101db57600080fd5b506101e461079c565b6040516101f19190610c45565b60405180910390f35b34801561020657600080fd5b50610221600480360381019061021c91906110a0565b6107a9565b60405161022f92919061118c565b60405180910390f35b34801561024457600080fd5b5061024d610891565b60405161025a9190610c45565b60405180910390f35b34801561026f57600080fd5b5061028a600480360381019061028591906111bc565b6108b9565b6040516102979190610fd0565b60405180910390f35b3480156102ac57600080fd5b506102b5610900565b6040516102c29190610c45565b60405180910390f35b3480156102d757600080fd5b506102e061090a565b6040516102ed9190610c45565b60405180910390f35b60007f0000000000000000000000000000000000000000000000000000000000000000905090565b6000600160149054906101000a900460ff16905090565b7f000000000000000000000000000000000000000000000000000000000000000073ffffffffffffffffffffffffffffffffffffffff163373ffffffffffffffffffffffffffffffffffffffff16146103e757337f00000000000000000000000000000000000000000000000000000000000000006040517f1cf993f40000000000000000000000000000000000000000000000000000000081526004016103de9291906111e9565b60405180910390fd5b6103f18282610916565b5050565b7f000000000000000000000000000000000000000000000000000000000000000034101561044f576040517f2af1709f00000000000000000000000000000000000000000000000000000000815260040160405180910390fd5b6000600181111561046357610462610c60565b5b600160149054906101000a900460ff16600181111561048557610484610c60565b5b146104bc576040517f12a43ae900000000000000000000000000000000000000000000000000000000815260040160405180910390fd5b6000339080600181540180825580915050600190039060005260206000200160009091909190916101000a81548173ffffffffffffffffffffffffffffffffffffffff021916908373ffffffffffffffffffffffffffffffffffffffff1602179055503373ffffffffffffffffffffffffffffffffffffffff167f0805e1d667bddb8a95f0f09880cf94f403fb596ce79928d9f29b74203ba284d460405160405180910390a2565b600061057e604051806020016040528060008152506107a9565b509050806105ed5747600080549050600160149054906101000a900460ff1660018111156105af576105ae610c60565b5b6040517fe059521b0000000000000000000000000000000000000000000000000000000081526004016105e493929190611212565b60405180910390fd5b60018060146101000a81548160ff0219169083600181111561061257610611610c60565b5b021790555060007f000000000000000000000000000000000000000000000000000000000000000073ffffffffffffffffffffffffffffffffffffffff16635d3b1d307f00000000000000000000000000000000000000000000000000000000000000007f000000000000000000000000000000000000000000000000000000000000000060037f000000000000000000000000000000000000000000000000000000000000000060016040518663ffffffff1660e01b81526004016106dc9594939291906112c1565b602060405180830381600087803b1580156106f657600080fd5b505af115801561070a573d6000803e3d6000fd5b505050506040513d601f19601f8201168201806040525081019061072e9190611329565b9050807fde6349b018d6c03d837b67d9a198a6ba4842546f2295fe963fae141e5dbaef8160405160405180910390a250505050565b6000600160009054906101000a900473ffffffffffffffffffffffffffffffffffffffff16905090565b6000600163ffffffff16905090565b6000600361ffff16905090565b600060606000600160149054906101000a900460ff1660018111156107d1576107d0610c60565b5b600060018111156107e5576107e4610c60565b5b14905060007f0000000000000000000000000000000000000000000000000000000000000000600254426108199190611385565b119050600080600080549050119050600080471190508380156108395750825b80156108425750815b801561084b5750805b9550856040518060400160405280600381526020017f30783000000000000000000000000000000000000000000000000000000000008152509550955050505050915091565b60007f0000000000000000000000000000000000000000000000000000000000000000905090565b60008082815481106108ce576108cd6113b9565b5b9060005260206000200160009054906101000a900473ffffffffffffffffffffffffffffffffffffffff169050919050565b6000600254905090565b60008080549050905090565b6000808054905082600081518110610931576109306113b9565b5b60200260200101516109439190611417565b905060008181548110610959576109586113b9565b5b9060005260206000200160009054906101000a900473ffffffffffffffffffffffffffffffffffffffff16600160006101000a81548173ffffffffffffffffffffffffffffffffffffffff021916908373ffffffffffffffffffffffffffffffffffffffff16021790555060008082815481106109d9576109d86113b9565b5b9060005260206000200160009054906101000a900473ffffffffffffffffffffffffffffffffffffffff1690506000600160146101000a81548160ff02191690836001811115610a2c57610a2b610c60565b5b0217905550600067ffffffffffffffff811115610a4c57610a4b610d48565b5b604051908082528060200260200182016040528015610a7a5781602001602082028036833780820191505090505b5060009080519060200190610a90929190610b85565b504260028190555060008173ffffffffffffffffffffffffffffffffffffffff1647604051610abe90611479565b60006040518083038185875af1925050503d8060008114610afb576040519150601f19603f3d011682016040523d82523d6000602084013e610b00565b606091505b5050905080610b3b576040517fba31c4f300000000000000000000000000000000000000000000000000000000815260040160405180910390fd5b8173ffffffffffffffffffffffffffffffffffffffff167f5b690ec4a06fe979403046eaeea5b3ce38524683c3001f662c8b5a829632f7df60405160405180910390a25050505050565b828054828255906000526020600020908101928215610bfe579160200282015b82811115610bfd5782518260006101000a81548173ffffffffffffffffffffffffffffffffffffffff021916908373ffffffffffffffffffffffffffffffffffffffff16021790555091602001919060010190610ba5565b5b509050610c0b9190610c0f565b5090565b5b80821115610c28576000816000905550600101610c10565b5090565b6000819050919050565b610c3f81610c2c565b82525050565b6000602082019050610c5a6000830184610c36565b92915050565b7f4e487b7100000000000000000000000000000000000000000000000000000000600052602160045260246000fd5b60028110610ca057610c9f610c60565b5b50565b6000819050610cb182610c8f565b919050565b6000610cc182610ca3565b9050919050565b610cd181610cb6565b82525050565b6000602082019050610cec6000830184610cc8565b92915050565b6000604051905090565b600080fd5b600080fd5b610d0f81610c2c565b8114610d1a57600080fd5b50565b600081359050610d2c81610d06565b92915050565b600080fd5b6000601f19601f8301169050919050565b7f4e487b7100000000000000000000000000000000000000000000000000000000600052604160045260246000fd5b610d8082610d37565b810181811067ffffffffffffffff82111715610d9f57610d9e610d48565b5b80604052505050565b6000610db2610cf2565b9050610dbe8282610d77565b919050565b600067ffffffffffffffff821115610dde57610ddd610d48565b5b602082029050602081019050919050565b600080fd5b6000610e07610e0284610dc3565b610da8565b90508083825260208201905060208402830185811115610e2a57610e29610def565b5b835b81811015610e535780610e3f8882610d1d565b845260208401935050602081019050610e2c565b5050509392505050565b600082601f830112610e7257610e71610d32565b5b8135610e82848260208601610df4565b91505092915050565b60008060408385031215610ea257610ea1610cfc565b5b6000610eb085828601610d1d565b925050602083013567ffffffffffffffff811115610ed157610ed0610d01565b5b610edd85828601610e5d565b9150509250929050565b600080fd5b60008083601f840112610f0257610f01610d32565b5b8235905067ffffffffffffffff811115610f1f57610f1e610ee7565b5b602083019150836001820283011115610f3b57610f3a610def565b5b9250929050565b60008060208385031215610f5957610f58610cfc565b5b600083013567ffffffffffffffff811115610f7757610f76610d01565b5b610f8385828601610eec565b92509250509250929050565b600073ffffffffffffffffffffffffffffffffffffffff82169050919050565b6000610fba82610f8f565b9050919050565b610fca81610faf565b82525050565b6000602082019050610fe56000830184610fc1565b92915050565b600080fd5b600067ffffffffffffffff82111561100b5761100a610d48565b5b61101482610d37565b9050602081019050919050565b82818337600083830152505050565b600061104361103e84610ff0565b610da8565b90508281526020810184848401111561105f5761105e610feb565b5b61106a848285611021565b509392505050565b600082601f83011261108757611086610d32565b5b8135611097848260208601611030565b91505092915050565b6000602082840312156110b6576110b5610cfc565b5b600082013567ffffffffffffffff8111156110d4576110d3610d01565b5b6110e084828501611072565b91505092915050565b60008115159050919050565b6110fe816110e9565b82525050565b600081519050919050565b600082825260208201905092915050565b60005b8381101561113e578082015181840152602081019050611123565b8381111561114d576000848401525b50505050565b600061115e82611104565b611168818561110f565b9350611178818560208601611120565b61118181610d37565b840191505092915050565b60006040820190506111a160008301856110f5565b81810360208301526111b38184611153565b90509392505050565b6000602082840312156111d2576111d1610cfc565b5b60006111e084828501610d1d565b91505092915050565b60006040820190506111fe6000830185610fc1565b61120b6020830184610fc1565b9392505050565b60006060820190506112276000830186610c36565b6112346020830185610c36565b6112416040830184610c36565b949350505050565b6000819050919050565b61125c81611249565b82525050565b600067ffffffffffffffff82169050919050565b61127f81611262565b82525050565b600061ffff82169050919050565b61129c81611285565b82525050565b600063ffffffff82169050919050565b6112bb816112a2565b82525050565b600060a0820190506112d66000830188611253565b6112e36020830187611276565b6112f06040830186611293565b6112fd60608301856112b2565b61130a60808301846112b2565b9695505050505050565b60008151905061132381610d06565b92915050565b60006020828403121561133f5761133e610cfc565b5b600061134d84828501611314565b91505092915050565b7f4e487b7100000000000000000000000000000000000000000000000000000000600052601160045260246000fd5b600061139082610c2c565b915061139b83610c2c565b9250828210156113ae576113ad611356565b5b828203905092915050565b7f4e487b7100000000000000000000000000000000000000000000000000000000600052603260045260246000fd5b7f4e487b7100000000000000000000000000000000000000000000000000000000600052601260045260246000fd5b600061142282610c2c565b915061142d83610c2c565b92508261143d5761143c6113e8565b5b828206905092915050565b600081905092915050565b50565b6000611463600083611448565b915061146e82611453565b600082019050919050565b600061148482611456565b915081905091905056fea2646970667358221220d51034fccbe07f3f2ebf27909bd6865860602db6f892b5547e8f1f5cbc90e42d64736f6c63430008080033",
  "devdoc": {
    "author": "Bobby William Major",
    "details": "This is an implementation of the Chainlink VRF v2 and Keepers",
    "kind": "dev",
    "methods": {
      "checkUpkeep(bytes)": {
        "details": "This is the function the Chainlink Keepers nodes call they look for the 'upKeepNeeded' to return true The following should be true in order to return true 1. Our time interval should have passed 2. The lottery should have at least one player, and have some ETH 3. Our sunscription is funded with some ETH 4. The lottery should be an \"open\" state"
      }
    },
    "title": "A sample raffle contract",
    "version": 1
  },
  "userdoc": {
    "kind": "user",
    "methods": {},
    "notice": "This contract is for creating an untempered with decentraliezed lottery",
    "version": 1
  },
  "storageLayout": {
    "storage": [
      {
        "astId": 243,
        "contract": "contracts/Raffle.sol:Raffle",
        "label": "s_players",
        "offset": 0,
        "slot": "0",
        "type": "t_array(t_address_payable)dyn_storage"
      },
      {
        "astId": 260,
        "contract": "contracts/Raffle.sol:Raffle",
        "label": "s_recentWinner",
        "offset": 0,
        "slot": "1",
        "type": "t_address"
      },
      {
        "astId": 263,
        "contract": "contracts/Raffle.sol:Raffle",
        "label": "s_raffleState",
        "offset": 20,
        "slot": "1",
        "type": "t_enum(RaffleState)238"
      },
      {
        "astId": 265,
        "contract": "contracts/Raffle.sol:Raffle",
        "label": "s_lastTimestamp",
        "offset": 0,
        "slot": "2",
        "type": "t_uint256"
      },
      {
        "astId": 270,
        "contract": "contracts/Raffle.sol:Raffle",
        "label": "linkAddress",
        "offset": 0,
        "slot": "3",
        "type": "t_address"
      }
    ],
    "types": {
      "t_address": {
        "encoding": "inplace",
        "label": "address",
        "numberOfBytes": "20"
      },
      "t_address_payable": {
        "encoding": "inplace",
        "label": "address payable",
        "numberOfBytes": "20"
      },
      "t_array(t_address_payable)dyn_storage": {
        "base": "t_address_payable",
        "encoding": "dynamic_array",
        "label": "address payable[]",
        "numberOfBytes": "32"
      },
      "t_enum(RaffleState)238": {
        "encoding": "inplace",
        "label": "enum Raffle.RaffleState",
        "numberOfBytes": "1"
      },
      "t_uint256": {
        "encoding": "inplace",
        "label": "uint256",
        "numberOfBytes": "32"
      }
    }
  }
}